:1009B10020456C656374726963205069616E6F00D4
:1009C10000EB006200FA008A00F9001F00EF00A3AB
:1009D10000D4005000F1006C00F2003D00F300BEB5
:1009E10000E4007B00F5001400F500B100F600D131
:1009F10000FB006800FA00D900E7007C00EA00284B
:100A010000C800F400D600C300ED00A200DB0044E2
:100A110000E200D800F900DF00CE00F800F800B6CF
:080A210000DF004600F700D1E0
:100A2900203A0B001200140012000E000C000C00FA
:100A39000E0012001600040002002E002E002E00E7
:100A490004003200320032002E00160004002E008D
:100A59002E0032003200160016001400162034450C
:100A690046324534433441324531423243334433CB
:100A790043324533463347334734463444324532AB
:100A890043314631473247314231443444314233AC
:040A99004131413373
:10080000120B98120B58120B937F507EC3120B746D
:100810007BFF7A0979B1120AD57FC0120B7F7598D8
:1008200050758921758DFD758BFDD2ACD2AFD28EFE
:10083000E4F579F57AE57A25E0240BF808E6F50980
:1008400025E024C1F582E43409F583740193F58C25
:10085000E50925E024C3F582E43409F583E4740155
:1008600093F58AD28C7F307E75120B74C28C7FF424
:100870007E01120B74D2B7057AE57A70020579C34E
:10088000941DE5796480948040ABAF08EF3395E028
:0F089000FEEF64014E70F3120B01E4F50880EBEC
:030B9800D28122E5
:0A0B7F008FA0C280120B6CC282220C
:100B58007F38120B7F7F0C120B7F7F01120B7F7F78
:040B680080020B7F7D
:0A0B89008FA0D280120B6CC28222F2
:060AD5008B7B8A7C897D09
:100ADB00120B438F7EE57E601CAB7BAA7CA97D123B
:100AEB000B2AFF120B897401257DF57DE4357CF50E
:050AFB007C157E80E087
:010B000022D2
:050B9300D2A9C28C2272
:100B0100E50925E024C1F582E43409F583740193F4
:100B1100F58CE50925E024C3F582E43409F58374F5
:090B21000193F58AD28CD2B722AF
:080B6C00C281D2827F057E00E8
:0B0B7400EF1FAC0670011E4C70F62253
:0300230002092BA4
:10092B00C0E0C0F0C083C082C0D075D000C000C092
:10093B0001C002C003C004C005C006C007309849FF
:10094B00C29885990AAF0AEF3395E0FED3EF946016
:10095B00EE64809480402EEF947BEE648094805004
:10096B0024E50A249F25E0F5097508012445F8E6DE
:10097B00FF120B8974462509F8E6FF120B897FC01D
:10098B00120B7F8006C28C8002C299D007D006D092
:10099B0005D004D003D002D001D000D0D0D082D06B
:0609AB0083D0F0D0E03221
:03000B00020A9E48
:100A9E00C0E0C083C082C0D0E50925E024C1F58244
:100AAE00E43409F583740193F58CE50925E024C33C
:100ABE00F582E43409F583740193F58AB2B7D0D088
:070ACE00D082D083D0E0329A
:0300000002089F54
:0C089F00787FE4F6D8FD75817E0208E643
:100B2A00BB010689828A83E0225002E722BBFE02C9
:090B3A00E32289828A83E49322FC
:100B4300E4FFFE120B2A600C0FEF70010E09E9702F
:050B5300F20A80EF2210
:1008AB00020800E493A3F8E493A34003F68001F25B
:1008BB0008DFF48029E493A3F85407240CC8C3334E
:1008CB00C4540F4420C8834004F456800146F6DF1D
:1008DB00E4800B0102040810204080900A29E47E7A
:1008EB00019360BCA3FF543F30E509541FFEE49312
:1008FB00A360010ECF54C025E060A840B8E493A3D9
:10090B00FAE493A3F8E493A3C8C582C8CAC583CA03
:10091B00F0A3C8C582C8CAC583CADFE9DEE780BEBB
:010A9D000058
:00000001FF
