:1009A00020456C656374726963205069616E6F00E5
:1009B00000EB006200FA008A00F9001F00EF00A3BC
:1009C00000D4005000F1006C00F2003D00F300BEC6
:1009D00000E4007B00F5001400F500B100F600D142
:1009E00000FB006800FA00D900E7007C00EA00285C
:1009F00000C800F400D600C300ED00A200DB0044F4
:100A000000E200D800F900DF00CE00F800F800B6E0
:080A100000DF004600F700D1F1
:100A1800203A0A001200140012000E000C000C000C
:100A28000E0012001600040002002E002E002E00F8
:100A380004003200320032002E00160004002E009E
:100A48002E0032003200160016001400162034441E
:100A580046324534433441324531423243334433DC
:100A680043324533463347334734463444324532BC
:100A780043314631473247314231443444314233BD
:040A88004131413384
:10080000120B87120B47120B827F507EC3120B63B1
:100810007BFF7A0979A0120AC47FC0120B6E75980B
:1008200050758921758DFD758BFDD2ACD2AFD28EFE
:10083000E4F578F579E57925E0240AF808E6F50885
:1008400025E024B0F582E43409F583740193F58C36
:10085000E50825E024B2F582E43409F583E4740167
:1008600093F58AD28C7F307E75120B63C28C7FF435
:100870007E01120B63D2B70579E57970020578C362
:0C088000941DE5786480948040AB80FEFD
:030B8700D28122F6
:0A0B6E008FA0C280120B5BC282222E
:100B47007F38120B6E7F0C120B6E7F01120B6E7FBC
:040B570080020B6E9F
:0A0B78008FA0D280120B5BC2822214
:060AC4008B7A8A7B897C1D
:100ACA00120B328F7DE57D601CAB7AAA7BA97C1262
:100ADA000B19FF120B787401257CF57CE4357BF544
:050AEA007B157D80E09A
:010AEF0022E4
:050B8200D2A9C28C2283
:100AF000E50825E024B0F582E43409F58374019318
:100B0000F58CE50825E024B2F582E43409F5837418
:090B10000193F58AD28CD2B722C0
:080B5B00C281D2827F057E00F9
:0B0B6300EF1FAC0670011E4C70F62264
:03002300020918B7
:10091800C0E0C0F0C083C082C0D075D000C000C0A5
:1009280001C002C003C004C005C006C00730984B10
:10093800C298859909AF09EF3395E0FED3EF94602B
:10094800EE648094804030EF947BEE648094805015
:1009580026E509249F25E0F508120AF074442508C5
:10096800F8E6FF120B7874452508F8E6FF120B78B5
:100978007FC0120B6E8006C28C8002C299D007D04D
:1009880006D005D004D003D002D001D000D0D0D0FA
:0809980082D083D0F0D0E032E0
:03000B00020A8D59
:100A8D00C0E0C083C082C0D0E50825E024B0F58267
:100A9D00E43409F583740193F58CE50825E024B25F
:100AAD00F582E43409F583740193F58AB2B7D0D099
:070ABD00D082D083D0E032AB
:0300000002088C67
:0C088C00787FE4F6D8FD75817D0208D36A
:100B1900BB010689828A83E0225002E722BBFE02DA
:090B2900E32289828A83E493220D
:100B3200E4FFFE120B19600C0FEF70010E09E97051
:050B4200F20A80EF2221
:10089800020800E493A3F8E493A34003F68001F26E
:1008A80008DFF48029E493A3F85407240CC8C33361
:1008B800C4540F4420C8834004F456800146F6DF30
:1008C800E4800B0102040810204080900A18E47E9E
:1008D800019360BCA3FF543F30E509541FFEE49325
:1008E800A360010ECF54C025E060A840B8E493A3EC
:1008F800FAE493A3F8E493A3C8C582C8CAC583CA17
:10090800F0A3C8C582C8CAC583CADFE9DEE780BECE
:010A8C000069
:00000001FF
