:1009120020456C656374726963205069616E6F0073
:1009220000EB006200FA008A00F9001F00EF00A34A
:1009320000D4005000F1006C00F2003D00F300BE54
:1009420000E4007B00F5001400F500B100F600D1D0
:1009520000FB006800FA00D900E7007C00EA0028EA
:1009620000C800F400D600C300ED00A200DB004482
:1009720000E200D800F900DF00CE00F800F800B66F
:0809820000DF004600F700D180
:1009C80020340B46324534433441324531423243B8
:1009D800334433433245334633473347344634444C
:1009E800324532433146314732473142314434444B
:0709F800314233413141336C
:10098A00120AFA120ABA120AF57BFF7A09791212C6
:10099A000A377FC0120AE1759850758921758DFD55
:1009AA00758BFDD2ACD2AFD28EAF08EF3395E0FE95
:0E09BA00EF64014E70F3120A63E4F50880EB5F
:030AFA00D2812284
:0A0AE1008FA0C280120ACEC282224A
:100ABA007F38120AE17F0C120AE17F01120AE17FF4
:040ACA0080020AE1BB
:0A0AEB008FA0D280120ACEC2822230
:060A37008B3F8A4089415B
:100A3D00120AA58F42E542601CAB3FAA40A94112A4
:100A4D000A8CFF120AEB74012541F541E43540F59E
:050A5D0040154280E09D
:010A62002271
:050AF500D2A9C28C2211
:100A6300E50925E02422F582E43409F58374019332
:100A7300F58CE50925E02424F582E43409F5837433
:090A83000193F58AD28CD2B7224E
:080ACE00C281D2827F057E0087
:0B0AD600EF1FAC0670011E4C70F622F2
:0300230002088C44
:10088C00C0E0C0F0C083C082C0D075D000C000C032
:10089C0001C002C003C004C005C006C0073098499F
:1008AC00C29885990AAF0AEF3395E0FED3EF9460B6
:1008BC00EE64809480402EEF947BEE6480948050A4
:1008CC0024E50A249F25E0F509750801240BF8E6B8
:1008DC00FF120AEB740C2509F8E6FF120AEB7FC035
:1008EC00120AE18006C28C8002C299D007D006D0D1
:1008FC0005D004D003D002D001D000D0D0D082D00B
:06090C0083D0F0D0E032C0
:03000B00020A00E6
:100A0000C0E0C083C082C0D0E50925E02422F58281
:100A1000E43409F583740193F58CE50925E0242479
:100A2000F582E43409F583740193F58AB2B7D0D026
:070A3000D082D083D0E03238
:03000000020800F3
:0C080000787FE4F6D8FD758142020847BD
:100A8C00BB010689828A83E0225002E722BBFE0268
:090A9C00E32289828A83E493229B
:100AA500E4FFFE120A8C600C0FEF70010E09E9706D
:050AB500F20A80EF22AF
:10080C0002098AE493A3F8E493A34003F68001F26F
:10081C0008DFF48029E493A3F85407240CC8C333ED
:10082C00C4540F4420C8834004F456800146F6DFBC
:10083C00E4800B01020408102040809009C8E47E7B
:10084C00019360BCA3FF543F30E509541FFEE493B1
:10085C00A360010ECF54C025E060A840B8E493A378
:10086C00FAE493A3F8E493A3C8C582C8CAC583CAA3
:10087C00F0A3C8C582C8CAC583CADFE9DEE780BE5B
:0109FF0000F7
:00000001FF
